:020000040800F2
:100000009022012079020008B118010879C3000884
:10001000AD180108091700088980010800000000D8
:10002000000000000000000000000000C101000806
:10003000713300080000000015020008713D01083E
:10004000930200089302000893020008930200083C
:10005000930200089302000893020008930200082C
:10006000930200089302000893020008930200081C
:10007000930200089302000893020008930200080C
:1000800093020008930200089302000893020008FC
:100090000D170008930200089302000801430008AE
:1000A00093020008930200089302000893020008DC
:1000B00093020008930200089302000893020008CC
:1000C00093020008930200089302000893020008BC
:1000D00093020008F5440108930200089302000807
:1000E000930200089302000893020008930200089C
:1000F000930200089302000893020008930200088C
:10010000930200088D27010893020008930200085B
:100110009302000893020008394101089302000885
:1001200093020008930200089302000801230008CC
:10013000930200089302000893020008930200084B
:1001400093020008D51700089302000893020008E4
:10015000930200089302000893020008930200082B
:10016000930200089302000893020008930200081B
:1001700093020008951901089302000893020008F1
:1001800093020008930200089302000893020008FB
:1001900093020008930200089302000893020008EB
:1001A0006912010893020008F5220008DFF80CD05C
:1001B00000F06CFD00480047E5AD020890220120E8
:1001C0002A4B19680868B0E8F04F80F30988BFF33C
:1001D0006F8F4FF0000080F311887047000000001F
:1001E00006480068006880F3088862B661B6BFF30D
:1001F0004F8FBFF36F8F00DF00BF00BF08ED00E03F
:10020000DFF80C00016841F470010160704700BF25
:1002100088ED00E0EFF30980BFF36F8F134B1A688E
:100220001EF0100F08BF20ED108A20E9F04F10607B
:1002300008B44FF0100080F31188BFF34F8FBFF365
:100240006F8F2EF051F94FF0000080F3118808BC39
:1002500019680868B0E8F04F1EF0100F08BFB0EC46
:10026000108A80F30988BFF36F8F70471401002054
:10027000EFF30580704700000648804706480047B6
:10028000FEE7FEE7FEE7FEE7FEE7FEE7FEE7FEE746
:10029000FEE7FEE7653E0108AD0100082DE9F05FCD
:1002A0000546002092469B468846064681464024E5
:1002B0001BE0284641464746224600F021FB5346B4
:1002C0005A46C01A914110D311461846224600F0F2
:1002D00008FB2D1A67EB01084F462246012000213A
:1002E00000F0FFFA17EB00094E41201EA4F10104B3
:1002F000DFDC484631462A464346BDE8F09F10B54C
:10030000431A934209D28318881803E010F8011D9C
:1003100003F8011D521EF9D210BD40EA01039B07EC
:1003200003D009E008C9121F08C0042AFAD203E06A
:1003300011F8013B00F8013B521EF9D210BDD2B2B8
:1003400001E000F8012B491EFBD270470022F6E7BE
:1003500010B513460A4604461946FFF7F0FF20463B
:1003600010BD421E12F8013F002BFBD111F8013BDA
:1003700002F8013B002BF9D1704730B505462A46FB
:100380000B4612F8010B13F8014B08B1A042F8D04C
:100390001CB1002802D06D1CF1E7284630BD10B515
:1003A000044604E00B7800F8013B03B1491C521EDF
:1003B000F8D2204610BD421C10F8011B0029FBD1C9
:1003C000801A704710B5002200E0521C835C8C5CE0
:1003D000A34201D1002BF8D1D8B2E1B2401A10BD2E
:1003E00030B504460020034600E05B1C934203D274
:1003F000E05CCD5C401BF8D030BD034611F8012B0A
:1004000000F8012B002AF9D11846704730B505468F
:100410000020034600E05B1C934205D2EC5CC85C04
:10042000201A01D1002CF6D130BD2DE9F05F9346A2
:100430000F4680460446002624F00EFBD0F80090BC
:10044000824614F8015B2DB100F07CFA0068405D33
:10045000C007F6D12B2D02D02D2D1AD0641E0021FD
:10046000CAF800105A463946204600F078FA01468C
:1004700027B13868A04201D1C7F80080DAF800003F
:10048000022809D0CAF80090700505D54842BDE899
:10049000F09F46F48066E2E70846F8E770B5064646
:1004A00024F0DAFA046805460A220021304600F0FA
:1004B000F3FA2C6070BD2DE9FE4F804681EA0300FF
:1004C000C00F0C46009021F0004123F00045B8EB2E
:1004D0000200A94105D24046214690461C460B46E3
:1004E000024623F00040104304D14046214603B0A9
:1004F000BDE8F08F270DC7F30A00C3F30A5102903D
:10050000401A0190402866DAC3F3130040F4801BC0
:100510000098924620B10023D2EB030A63EB0B0B49
:1005200001985946C0F14002504600F0DAF90646FB
:100530000D4650465946019A00F0F2F910EB0800BA
:100540006141002487EA115284EAE7731A433BD0E1
:10055000009A3AB3019A012A4FEA075210DC001BB5
:1005600061EB02014FF0004202EA0752CDE900427E
:10057000001C41F5801132462B4600F008FBB6E71F
:10058000001B61EB0201001C41F5801300185B4168
:100590002018A2F5001747EB030140EAD570B61901
:1005A0006D4111E06D084FEA360645EAC0754FEA25
:1005B0000752001B61EB0201001C41F58011490844
:1005C0004FEA30000019514132462B4603B0BDE8D6
:1005D000F04F00F0CFBA0098012240000023D0EB8A
:1005E000020263EBE073009821464FEAE074B8EB37
:1005F000000061EB0401E9E783F000435BE781F071
:10060000004158E72DE9FE4F81EA030404F000445D
:1006100021F0004100944FF0000B23F0004350EA1A
:10062000010402D052EA030404D10020014603B0C1
:10063000BDE8F08FC3F30A54C1F30A552C44A4F269
:10064000F3340194A0FB0254C1F3130141F480116F
:10065000C3F3130343F4801301FB024400FB034E76
:10066000840A970A44EA815447EA8357A4FB07683F
:1006700002958D0A05FB07854FEA932C04FB0C5469
:100680002705029D4FEA065847EA1637B5EB0805DD
:100690006EEB070C870E920E47EA811742EA83122F
:1006A000A7FB0201B6EB0B0164EB00042B0D43EA40
:1006B0000C335E1844EB1C50DA465146E7FB02014E
:1006C000C5F313044FEA0B3343EA14534FEA0432E1
:1006D000019C43EA0603A4F10C040294009CCDE9BA
:1006E00000B400F054FAA2E72DE9F04D81EA0304CA
:1006F00004F0004B21F0004514464FF0000A23F0AF
:10070000004150EA050220D054EA01021DD0C5F391
:100710000A570246C5F31303C1F31300C1F30A5687
:1007200040F4801543F48013A7EB0608101BD6464F
:1007300008F2FD3873EB050002D308F1010801E06F
:1007400092185B41B8F1000F03DA00200146BDE8C2
:10075000F08D00204FF48011064684460EE0171BF2
:1007600073EB050705D3121B63EB050306434CEA45
:10077000010C49084FEA300092185B4150EA01072A
:10078000EDD152EA030012D082EA040083EA0501A7
:10079000084303D100224FF0004308E0101BAB4197
:1007A00002D20122002302E06FF0010253101AEB83
:1007B00006004CEB085110EB0A0041EB0B01BDE8C1
:1007C000F04D00F0D7B90EB5C10F80EAE0700844D3
:1007D000CA07002140F233438DE80E000A460B465B
:1007E00000F0D5F903B000BD70B5C1F30A5201F0B5
:1007F00000450024C1F3130140F2FF3341F480119E
:100800009A4201DA002070BD40F233439A42A2F2CC
:10081000334203DC524200F073F800E090402C4376
:10082000F1D0404270BDC1F30A5210B5C1F31301BB
:1008300040F2FF3341F480119A4201DA002010BDEA
:1008400040F233439A42A2F2334203DC524200F0B8
:1008500057F810BD904010BD00F0004230F000404D
:100860000AD0C10D01F56071C0F3160042EA0151D2
:10087000C20840071143704700200146704701F04D
:10088000004330B421F0004150EA010206D00A0DC5
:10089000A2F56072C1F31301002A02DC30BC002013
:1008A0007047440F44EAC104C100E01830BC00EBBB
:1008B000C25000F029B930B50B4601460020202275
:1008C000012409E021FA02F59D4205D303FA02F55D
:1008D000491B04FA02F52844151EA2F10102F1DCBD
:1008E00030BD202A04DB203A00FA02F100207047D4
:1008F0009140C2F1200320FA03F31943904070475E
:10090000202A04DB203A21FA02F00021704721FA64
:1009100002F3D040C2F120029140084319467047CB
:10092000202A06DBCB17203A41FA02F043EAE073B3
:1009300006E041FA02F3D040C2F1200291400843A0
:100940001946704700487047848C070810B5044664
:10095000FFF7F8FF0068005D00F0010010BD2DE911
:10096000F05F82460078002715468B460AF10104A5
:10097000B946302801D09DB113E014F8010B0127CE
:10098000782803D0582801D045B10AE00DB1102DC8
:1009900007D10027102514F8010B02E0082500E01C
:1009A0000A250026B0460EE005FB080005FB06F10F
:1009B000012701EB10461FFA80F8B6F5803F00D3FF
:1009C000B94614F8010B294600F072F90028EBDA59
:1009D000BBF1000F05D00FB1641E00E05446CBF808
:1009E0000040B9F1000F06D024F036F80221016072
:1009F000C81EBDE8F09F48EA0640FAE70FB400239E
:100A000000B589B00CA900910B996FF00042CB6042
:100A10001E4B06931E4B07930423CDE901321D4A5A
:100A2000089202466B46002000F0D0F909B05DF84C
:100A300014FB70B586B006464FF0FF300091CDE94B
:100A40000101002015460C4604903246694604A870
:100A5000FFF7D4FF03460498211825B108B10A46D0
:100A600000E022462A6000280DD0002B02DD00980D
:100A7000884208D0081B0094CDE90104324669463B
:100A800004A8FFF7BBFF06B070BD00000910000806
:100A9000271000084D0900082DE9F04791460F4640
:100AA00080460446002614F8015B2DB1FFF74AFF8B
:100AB0000068405DC007F6D12B2D02D02D2D18D037
:100AC000641E4A4639462046FFF749FF27B1396878
:100AD000A14201D1C7F8008071054FF002040BD587
:100AE0004042002803DD23F0B7FF0460A007BDE803
:100AF000F08746F48066E4E70028F8DA23F0ACFFDC
:100B000004606FF00040F2E70029A8BF7047401C66
:100B1000490008BF20F00100704710B4B0FA80FC13
:100B200000FA0CF050EA010404BF10BC704749B150
:100B3000CCF1200421FA04F411FA0CF118BF0121C0
:100B400021430843A3EB0C01CB1D0106000A002B37
:100B5000BEBF002010BC704700EBC35010440029FA
:100B6000A4BF10BC7047401C490008BF20F0010022
:100B700010BC704710B5002B08DA401C41F1000191
:100B800092185B411A4301D120F0010010BD2DE9FC
:100B9000F04D92469B4611B1B1FA81F202E0B0FAF3
:100BA00080F220329046FFF79CFE04460F4640EA52
:100BB0000A0041EA0B0153465A46084303D1204636
:100BC0003946BDE8F08D114653EA010015D0C8F151
:100BD00040025046FFF794FE05460E4650465946E1
:100BE0004246FFF77EFE084301D0012000E00020CE
:100BF000054346EAE0762C4337430A984FEA4453CC
:100C0000A0EB08004FEAD4240A304FF0000244EA77
:100C100047544FEAD72502D500200146D1E7010508
:100C200010196941DDE9084500196941BDE8F04D39
:100C3000A0E7C1F30A52C1F3130140F2FF3341F4BC
:100C400080119A4202DA00200146704740F2334395
:100C50009A42A2F2334202DC5242FFF751BEFFF742
:100C600040BE000030B5002904DB4FF00044404294
:100C700064EB0101002B04DB4FF00044524264EBB3
:100C80000303994208BF904230BD0000064C074D57
:100C900006E0E06840F0010394E80700984710344C
:100CA000AC42F6D3FFF786FA588D0708788D07080F
:100CB0003A2800D2303820F02002412A01D3A2F194
:100CC0003700884201D34FF0FF3070472DE9FF4FC6
:100CD000087881B09946FF2805D0491C2D2804D0FA
:100CE0000024002308E000230BE00124F9E703EBD4
:100CF000830300EB4303491C0878FF28F7D104B1B4
:100D00005B4200200090147801462D2C01D02B2C42
:100D100004D1521C2D2C12D00024009400251678EA
:100D2000FF2E0ED00A24A0FB04C801FB048100277B
:100D300000FB0711521C16EB0C006941EFE7012480
:100D4000EBE7994450EA010206D101980021C0E97D
:100D5000001105B0BDE8F08F0024A84D2646DFF84D
:100D6000A08200F071F982468B46B9F1000002DAE8
:100D7000C9F1000714E0074612E0F80707D0224641
:100D80002B4630464146FFF73DFC06468846224644
:100D90002B4610461946FFF735FC04460D467F10DA
:100DA000002FEAD1B9F1000F32464346504659466A
:100DB00002DAFFF799FC01E0FFF724FC009A0AB180
:100DC00081F00041019AC2E90001C2E72DE9FF4F1D
:100DD0001F468DB0D7E901464FF0FF382E2045461B
:100DE0004FF000090B90B9696D1C0E988847396A5D
:100DF000824688470028F6D11AF101000AD024F46F
:100E0000D064002E12DDBAF12B0F08D0BAF12D0FED
:100E10000CD102E0404611B09CE744F48064B9690B
:100E20006D1C0E9888478246A6F10106694660054A
:100E300001D52D2000E02B208DF8000001F1010BE1
:100E40000DF1200809E0B9696D1C0E9888478246AB
:100E50000F98761E44F400740560002E02DDBAF18E
:100E6000300FF0D00B998A453ED144F0800406E063
:100E70000F99681CA9F1010944F400740860761EFA
:100E8000B9696D1C0E98884782463028F0D02BE057
:100E90000B998A4505D1200603D444F08004761EC0
:100EA00018E0504625F014FC08B3761E0DF113012E
:100EB00044F400748B4508D2AAF130000BF8010B02
:100EC000200607D5A9F1010003E0200602D409F1AC
:100ED00001008146A00502D50F99681C0860B96918
:100EE0006D1C0E9888478246002ED1DC54E0002EFF
:100EF00052DDBAF1650F02D0BAF1450F4CD1A00511
:100F00004AD5761EB96924F440746D1C0E98884742
:100F10008246002E0DDD2B2804D0BAF12D0F08D10A
:100F200044F48074B9696D1C0E9888478246A6F116
:100F30000106E00501D52D2100E02B2108F8011B59
:100F4000CDF82C8021E0761E0DF1290144F40074C7
:100F500088450CD2AAF1300010F0FF0088F800009C
:100F600002D10B99884509D908F1010806E0E0058E
:100F700001D5244801E042F20F708146B9696D1C29
:100F80000E98884782460F980560002E04DD504673
:100F900025F09EFB0028D6D1F9690E988847FF20DE
:100FA0008BF8000088F800000020069007904B4660
:100FB0006A4608A906A8FFF789FEA00502D46FF0CB
:100FC000010028E714F0240F0AD0E00714D1DDE96E
:100FD00006123868031D3B600068C0E900120BE090
:100FE000DDE90601FFF74BFC0146E00704D1386854
:100FF000021D3A600068016028460CE700002440AA
:101000000000F03FF1D8FFFF426842B1016811F8DB
:10101000013B23B1521EC0E900121846704701215E
:10102000C160881E704742685AB1C368016843B9FD
:1010300083688B4205D0491E521CC0E90012002073
:1010400070474FF0FF3070470EB540F233420292C6
:101050000022CDE900221346FFF799FD03B000BD41
:1010600070B501EB020410F8015B15F0070301D124
:1010700010F8013B2A1106D110F8012B03E010F8FB
:10108000016B01F8016B5B1EF9D12B0705D400231E
:10109000521E0FD401F8013BFAE710F8013B02F1B0
:1010A0000202A1EB030303E013F8015B01F8015B0B
:1010B000521EF9D5A142D6D3002070BD7047000062
:1010C0001FB50020294A0123CDE901200093039098
:1010D00003464FF4006226A128482DF085FE00202B
:1010E000274A0223CDE901200093039003464FF4E1
:1010F000007224A126482DF077FE0020254A032304
:10110000CDE901200093039003464FF4806222A1B1
:1011100024482DF069FE0020234A0423CDE9012054
:101120000093039003464FF4807220A122482DF0D3
:101130005BFE0020214A0523CDE9012000930390A6
:1011400003464FF400721EA120482DF04DFE0020F2
:101150001F4A0623CDE901200093039003464FF474
:1011600080721CA11E482DF03FFE1FBD0000002014
:10117000765461736B4755490000000041DF020857
:1011800004000020765461736B5573657249460004
:10119000B5E5020808000020765461736B4D736753
:1011A00050726F0055DF0208100000207654617302
:1011B0006B53746172740000E1E3020814000020B4
:1011C000765461736B436F6D00000000ADDE020862
:1011D0000C000020765461736B55534250726F00BF
:1011E00029E7020800200149087370478440002065
:1011F00038B5446805460146204616F0FFFF002832
:1012000008BF38BD464A286811280DD006DC0B28D7
:101210002AD00E2838D00F2817D07CE0282873D089
:10122000B0F5107F0AD076E09268002A08BF38BD7A
:10123000294601B02046BDE830401047526801B051
:1012400029462046BDE8304010472546204605F097
:1012500029F90090406E0468684605F0BBF9002C3F
:101260001CBF2846A04738BD204605F01BF900905A
:10127000683005F019F8009803216C3005F042F849
:10128000684605F0A7F946E0E968486809680D294D
:1012900002D0202918D037E0002835DD4FF48071C6
:1012A000204617F076F8204605F0FCF8009090F8FC
:1012B0002850684605F08EF915F0020F1ED0012166
:1012C000204618F0D5FA19E0002817DD25464FF41E
:1012D0008071204617F05DF8284605F0E3F800908D
:1012E00090F82840684605F075F914F0020F08BF21
:1012F00038BD0121284618F0BBFA38BD2046BDE8AC
:101300003840022121F028BBE86820B920464FF47C
:10131000807116F051FF2846BDE8384017F08EBBAB
:101320003003002070B5044686B08069B4F908C067
:10133000658A00260091CDE90165CDE903C0B4F9C5
:101340000C00B4F91050C118B4F90A00B4F90EC079
:1013500010442B46624600F007F80546616800F02D
:10136000A7F906B0284670BD2DE9F04F85B0984624
:10137000DDE91164DDE90E5791468A46834606F0A1
:10138000A1FE04F14C001749CDE90210CDE9005748
:1013900043464A465146584617F094FA05001BD07A
:1013A00005F080F810223146049017F067F90E4CD2
:1013B0000499B4E8CD133431A1E8CD1394E80D10AD
:1013C000A1E80D1054F82C0D086004A805F002F9EE
:1013D000206841682846884708F04CFE05B028463A
:1013E000BDE8F08FF11100083C030020F0B5044681
:1013F00080688C4989B051F820506068002800F05E
:101400000A81052806D006287DD0122800F0B48075
:1014100000F004B9E869002808BF002651D0D5E9DA
:101420000012AB688DE80F0004F110010FC909F03C
:1014300061FC002655F8260008F035FAA169E86934
:101440000A1A216901446069304406F0B1FAA169C1
:10145000E8690A1A21690144E069801B06F0A8FACC
:10146000E169E8690A1A616901442069304406F0BB
:101470003BFBE169E8690A1A61690144A069801BC4
:1014800006F032FB761C022ED4DBA86808F00BFABB
:10149000E069E969D4F814C0431A2069421861442C
:1014A000801C521E06F09AFBE169E869A2690B1ADA
:1014B00061690144101A401C921E06F08FFBEE6910
:1014C00011E055F8260008F0EEF9E069831BA069E9
:1014D000821B606981192069304406F0BDFA761CD0
:1014E000022EEEDB0226D5E90301CDE90001E16918
:1014F000606901444B10A1698A1B811C206930443A
:1015000006F04CF900E011E0D5E90501CDE9000154
:10151000E0696169831E01440122A06902EB610157
:10152000821B2069304406F039F977E0206804F026
:10153000B9FF0490206819F0EDFA50B1A0680028B6
:1015400018BF00200AD10498006F002818BF01209E
:1015500004E00498406F002818BF0220049901EBB2
:101560008000C56E04A805F035F800231A46284609
:10157000216805F073FD51E0206804F093FF0490AA
:10158000866E002E08BF04A842D0A168B0F95C7036
:10159000002908BF012103D003290CBF022100212B
:1015A00000EB8101406D0C6C08F094F9204608F0C6
:1015B0007AF906A806F01AFCBDF81810A88B0144A9
:1015C000ADF81810BDF81C10081AADF81C00BDF8D5
:1015D0001A00801CADF81A00BDF81E00801EADF880
:1015E0001E000498B0F96020B0F95E1006A807F05C
:1015F00089FF04A804F0EEFF022008F0F7F9304656
:1016000004F050FF3A4606A9059005F033FE05A800
:1016100004F0E0FF02E0206818F00CFC09B00020A4
:10162000F0BD0000BC2C0708042928BF7047F0B4A7
:10163000044A52F8211091E8FE1080E8FE10F0BC38
:1016400070470000BC2C0708044A03491160044994
:101650004A6A4862104670476C030020300300203D
:101660003C030020002808BF704738B50C460546EB
:1016700006F028FD284604F015FF009044656846F2
:1016800004F0A8FF284618F023F808F0F3FC38BD52
:10169000042928BF7047F0B4044A52F8211090E89A
:1016A000FD1081E8FD10F0BC70470000BC2C07085D
:1016B000F0B583B00F4605004FF0010421D006F0CD
:1016C00001FD284604F0EEFE0190866E01A800960A
:1016D00004F080FF394668460AF020F878B1009897
:1016E0000024B04208D0284604F0DCFE01900099A6
:1016F000816601A804F06EFF284617F0E9FF08F0A4
:10170000B9FC03B02046F0BD00BFFEE710B52A4A81
:1017100000212A4800F0B5F927484068284A811A74
:1017200090422CD008DCB0F5803F35D025494018D8
:101730000CD001283DD115E0FD2939D0B1F53F7F0E
:1017400037D11D48C07A2049087033E0002406E0F4
:1017500019480B30005D1D490855601CC4B2082CA7
:10176000F6DB27E0002407E013480B30015D174843
:1017700008300155601CC4B2082CF5DB1AE00024C7
:1017800007E00D480B30015D104810300155601C1A
:10179000C4B2082CF5DB0DE0002406E006480B304F
:1017A000005D0B490855601CC4B2082CF6DB01E053
:1017B00000E000BF00BF10BDE81900200064004039
:1017C00003010200FFFEFDFF32000020BC190020D3
:1017D0002A00002010B500240D4A01210D4800F018
:1017E00050F90B480068A0F5407121390ED1084826
:1017F000007A58B90648807A012807D134B1000729
:1018000005490860BFF34F8FBFF36F8F10BD000015
:10181000E81900200068004004ED00E010B504461F
:101820000B48844209D10121480610F0EBF8002151
:101830004FF0007010F0E6F808E00121880610F083
:10184000E1F800214FF0806010F0DCF810BD0000DE
:101850000064004010B50021837A012202FA03F1EE
:101860003D4A126842F001023B4B1A603A4A1C3270
:1018700012688A43384B1C331A60027BCAB9364A55
:101880000C3212688A43344B0C331A604288C38886
:1018900042EA0343304A4032847A42F834300288C4
:1018A000838842EA03432C4A4032847A02EBC40222
:1018B0005360027B012A19D1274A0C3212680A436D
:1018C000254B0C331A604288038842EA0343224ABC
:1018D0004032847A42F83430C288838842EA034333
:1018E0001D4A4032847A02EBC4025360C27A3AB98C
:1018F000194A121D12688A43174B1B1D1A6006E015
:10190000154A121D12680A43134B1B1D1A600289E7
:1019100032B9114A143212688A430F4B14331A60D9
:101920000289012A06D10C4A143212680A430A4B72
:1019300014331A60427B012A06D1074A1C3212680E
:101940000A43054B1C331A60034A126822F0010255
:10195000014B1A6010BD0000006600401AB14369D7
:101960000B43436102E043698B434361704730B5E9
:10197000024600200023146824F002041460146856
:1019800044F00104146000E05B1C546814F0010F83
:1019900003D1A3F57F44FF3CF6D1546814F0010F46
:1019A00001D100206CE08C79012C04D1146844F042
:1019B0008004146003E0146824F080041460CC797F
:1019C000012C04D1146844F04004146003E014684E
:1019D00024F0400414600C7A012C04D1146844F003
:1019E0002004146003E0146824F0200414604C7A8E
:1019F000012C04D1146844F01004146003E014684E
:101A000024F0100414608C7A012C04D1146844F082
:101A10000804146003E0146824F008041460CC7A0D
:101A2000012C04D1146844F00404146003E0146829
:101A300024F0040414608C78A407CD7844EA05648B
:101A40000D7944EA05444D7944EA05540D886D1E2C
:101A50002C43D461146824F001041460002300E0D6
:101A60005B1C546814F0010F03D0A3F57F44FF3CC6
:101A7000F6D1546814F0010F01D0002000E00120DD
:101A800030BD10B500F5D87303EB01131B6803F0EC
:101A900004031372137A53B900F5D87303EB0113DF
:101AA0001B6840F2FF7404EA5353136009E000F529
:101AB000D87303EB01131B686FF0604404EAD3038F
:101AC000536000F5D87303EB01131B6803F00203A6
:101AD000537200F5D87303EB01135B6803F00F0337
:101AE000937200F5D87303EB01135B681B0AD37480
:101AF00000F5D87303EB01139B68D37200F5D8731C
:101B000003EB01139B681C0A147300F5D87303EBF5
:101B100001139B681C0C547300F5D87303EB01137D
:101B20009B681B0E937300F5D87303EB0113DB68FE
:101B3000D37300F5D87303EB0113DB681C0A14742C
:101B400000F5D87303EB0113DB681C0C547400F52B
:101B5000D87303EB0113DB681B0E937421B9C368C0
:101B600043F02003C36003E0036943F020030361F3
:101B700010BD000070B505460C46002613484560B0
:101B800000201249487204200872082088722078C8
:101B9000C87261780D480173A1784173E17881734F
:101BA0002179C17361790174A1794174E1798174FA
:101BB0000146074800F00EF8064600BF31460448CB
:101BC00000F09CF80128F9D170BD0000D419002064
:101BD0000064004010B502460020936803F0806363
:101BE000B3F1806F00D110E0936803F00063B3F1AC
:101BF000006F01D1012008E0936803F08053B3F136
:101C0000805F01D1022000E00420042874D002F596
:101C1000C07303EB00131B6803F0010402F5C073EB
:101C200003EB00131C600B7A7BB94B7A0C8843EAF8
:101C3000445302F5C07404EB00142468234302F5F6
:101C4000C07404EB0014236010E00B7A4C6843EA84
:101C5000C4034C7A234302F5C07404EB00142468D7
:101C6000234302F5C07404EB001423608B7A03F065
:101C70000F038B7202F5C07303EB00135B6823F054
:101C80000F0402F5C07303EB00135C6002F5C07330
:101C900003EB00135B688C7A234302F5C07404EBFA
:101CA000001463608B7B1C064B7B44EA03440B7B74
:101CB00044EA0323CC7A234302F5C07404EB0014F6
:101CC000A3608B7C1C064B7C44EA03440B7C44EAF7
:101CD0000323CC7B234302F5C07404EB0014E360C0
:101CE00002F5C07303EB00131B6843F0010402F517
:101CF000C07303EB00131C6010BD000010B502465A
:101D0000002321B1012907D002290FD109E09068F1
:101D10001D4C00EA04030BE090681C4C00EA04032D
:101D200006E090681A4C00EA040301E0002300BFBB
:101D300000BF184C181BA34216D007DC83B16FF00C
:101D4000806018180ED0022818D111E0B0F5007F7D
:101D500010D0114C001909D0B0F5003F0ED10BE0A6
:101D600002230DE000230BE0002309E0002307E03D
:101D7000012305E0012303E0012301E0002300BF6C
:101D800000BFD8B210BD000003000004000300082B
:101D900000000310000100080001FFF770B50025E6
:101DA0004FF4803400E0641E24B1802010F0C2FCA7
:101DB0000028F8D014B90325284670BD40F2FF5022
:101DC00010F074FC2846F8E72DE9F041064600279C
:101DD0004748056801E04648056815F0450FFAD008
:101DE00015F0040F06D00327042010F05FFC3846DE
:101DF000BDE8F08115F0010F05D00127012010F09A
:101E000055FC3846F4E710F08FFCB04202D01027A2
:101E10003846EDE740F2FF5010F048FC002010F08B
:101E2000A9FC04463348044201D13846E0E714F0E7
:101E3000004F01D01C20DBE714F0804F01D00920B7
:101E4000D6E714F0005F01D00A20D1E714F0805FDC
:101E500001D00B20CCE714F0006F01D00C20C7E7B5
:101E600014F0806F01D00D20C2E714F0807F01D004
:101E70000E20BDE714F4000F01D00F20B8E714F4D2
:101E8000800F01D01020B3E714F4001F01D01120FF
:101E9000AEE714F4801F01D01220A9E714F4002F3C
:101EA00001D01320A4E714F4802F01D014209FE761
:101EB00014F4003F01D015209AE714F4803F01D0BC
:101EC000162095E714F4004F01D0172090E714F482
:101ED000804F01D018208BE714F4005F01D0192047
:101EE00086E714F0080F01D01A2081E738467FE713
:101EF000342C014008E0FFFD70B500250F48046850
:101F000001E00E48046814F0450FFAD014F0040FF5
:101F100005D00325042010F0C9FB284670BD14F03D
:101F2000010F05D00125012010F0C0FB2846F5E780
:101F300040F2FF5010F0BAFB2846EFE7342C014086
:101F400070B500250B48046801E00A48046814F0E5
:101F5000450FFAD014F0040F05D00325042010F02B
:101F6000A5FB284670BD40F2FF5010F09FFB2846AD
:101F7000F8E70000342C01402DE9F04106460F46F9
:101F80004FF000082248056801E02148056815F077
:101F9000450FFAD015F0040F07D04FF003080420C6
:101FA00010F084FB4046BDE8F08115F0010F06D02B
:101FB0004FF00108012010F079FB4046F3E710F0E4
:101FC000B3FBB04203D04FF010084046EBE740F2BD
:101FD000FF5010F06BFB002010F0CCFB044614F413
:101FE000604F03D1200C38804046DCE714F4005FDA
:101FF00001D01320D7E714F4804F01D01020D2E78E
:1020000014F4004F01D00F20CDE74046CBE700008D
:10201000342C014070B500264FF480350F48046819
:1020200002E06D1E0D48046814F0450F01D1002D2B
:10203000F7D115B114F0040F05D00326042010F0D9
:1020400035FB304670BD14F0400F05D0002640200F
:1020500010F02CFB3046F5E73046F3E7342C014016
:10206000014609B90B487047012901D10020FAE760
:10207000022901D10020F6E7032901D10020F2E76F
:10208000042901D10020EEE7052901D10020EAE76B
:102090000020E8E78C37002008B525208DF80000E7
:1020A00001208DF8010000208DF8020001208DF83C
:1020B000030068460FF0FEFB08BD00001CB516F0DB
:1020C000F9FF0446002000902346094A122101909E
:1020D000084804F02FFE084908600846006816F01A
:1020E000DDFF044600230A22194616F0BBFB1CBD87
:1020F000354E0208005F0308EC0000201CB516F006
:10210000D9FF0446002000902346094A2A21019065
:10211000084804F00FFE084908600846006816F0F9
:10212000BDFF044600230A22012116F09BFB1CBDC3
:10213000F1570208F8600308F00000201CB516F003
:10214000B9FF0446002000902346044A0421019070
:10215000034804F0EFFD034908601CBD416202081A
:10216000205E0308E00000201CB516F0A3FF044623
:10217000002000902346044A02210190034804F005
:10218000D9FD034908601CBDAD630208905E0308D9
:10219000E80000201CB516F08DFF044600200090DA
:1021A0002346044A02210190034804F0C3FD034979
:1021B00008601CBD35640208C85E0308E400002006
:1021C0002DE9F041ADF5976D04460E461746002007
:1021D0000190029003900490002233A1A2A827F05E
:1021E000A1FA05461DB10DF5976DBDE8F0812FA14F
:1021F0000EA827F0A3FB054605B1F4E727B3012F8E
:1022000002D0022F42D10DE00A2229A118A827F0FE
:10221000B9FA05460DAB0122294918A827F08EFD11
:10222000054633E00020274908700A2226A118A895
:1022300027F0A8FA05460DAB40F22622264918A839
:1022400027F07CFD054621E0244901EB0410FEF750
:10225000B2F88046214800EB0411424601A8FEF77F
:102260009EF8334601AA1EA105A822F0E1FB0A222E
:1022700005A918A827F086FA05460DAB40F6C4322A
:102280001B4918A827F05AFD054600BF00BF05B13D
:10229000A9E718A827F072F9002203A1104627F039
:1022A00041FA00BF9FE70000303A0000303A2F00AB
:1022B000303A2F70726F6E616D652E747874000005
:1022C000D100002035000020303A2F6A69616F7A12
:1022D00068756E2E74787400E01C0020001A0020CF
:1022E000303A2F2573253032642E74787400000044
:1022F000081F0020022001498860704700B002409A
:1023000010B511F03DF910BD0246094B9A4201D2B9
:10231000084801E00648103811F0005F03D0064B72
:102320000B40C36002E0044B0B4083607047000029
:1023300010640240006002407D0F7D0F21B10268F1
:1023400042F00102026003E0026822F00102026032
:1023500070470000016821F0010101600021016067
:1023600041608160C1600161212141614A49884227
:1023700004D13D21484A103A91608CE04649183119
:10238000884205D14FF47461434A103A916082E06B
:1023900041493031884205D14FF474113E4A103A18
:1023A000916078E03C494831884205D14FF0746132
:1023B000394A103A91606EE037496031884204D161
:1023C0003649354A103AD16065E033497831884260
:1023D00004D13349304A103AD1605CE02E49903143
:1023E000884204D12F492C4A103AD16053E02A493F
:1023F000A831884205D14FF03D51274A103AD160AB
:1024000049E02949884204D13D21274A083A116010
:1024100041E025491831884205D14FF47461224AC0
:10242000083A116037E020493031884205D14FF435
:1024300074111D4A083A11602DE01B494831884249
:1024400005D14FF07461184A083A116023E016492B
:102450006031884204D11149134A121F11601AE0F9
:1024600011497831884204D10D490F4A121F116079
:1024700011E00D499031884204D10A490A4A121FDD
:10248000116008E00849A831884204D14FF03D515D
:10249000054A121F11607047106002403D00002085
:1024A000400F002000003D201064024021B102686E
:1024B00042F02002026003E0026822F02002026083
:1024C000704710B511F0800F09D022B1436943F075
:1024D0008003436103E0436923F080034361802963
:1024E0000BD02AB1036801F01E042343036004E00B
:1024F000036801F01E04A343036010BD10B5002261
:102500000268134B1A40CC680B6823434C69234381
:102510008C692343CC6923430C6A23434C6A2343CD
:102520008C6A23434C6B23438C6B23431A43026016
:10253000426922F00702D1E90B3423431A43426176
:102540000B6943604B6883608B68C36010BD0000FB
:102550003F801CF02DE9F04389B00D46040004BF14
:1025600009B0BDE8F08305F0ADFD112D6BD0132D42
:1025700057D02646204603F095FF0290C06B04F02A
:10258000FBF8074602A804F025F8A5F14100192838
:1025900098BF2035A8460024002F71DD0025304665
:1025A00003F080FF0590C06B214604F0F1F88146EE
:1025B00005A804F00FF8B9F1000002D003F072FF93
:1025C00005460395002D58D02878A0F1410119291E
:1025D00098BF2030C5B203A803F0FCFF45454CD19D
:1025E000002E4DD005F06EFD304603F05BFF0190EC
:1025F000C06B04F0C1F8002818BF401E844244DCC0
:102600000198B0F93410A14231D0848601A803F0BA
:10261000E1FF304617F05CF80421304617F028F946
:1026200028E005F04FFD204603F03CFF0090B0F994
:102630003450684603F0CEFF07F01CFD691C2046AD
:1026400000F017FE1CE005F03DFD204603F02AFFD8
:102650000190B0F9345001A803F0BCFF07F00AFD67
:10266000290018BF691E204600F003FE08E001A8FB
:1026700003F0B0FF07F0FEFC02E0641CBC428DDBFF
:1026800009B0BDE8F04307F0F5BC0446B8E7002800
:1026900014BF00297047F8B50C46054605F012FD39
:1026A000284603F0FFFE0090C66B684603F092FFD9
:1026B0002046FDF780FE421C2146304603F0B0FF65
:1026C000284617F005F807F0D5FCF8BDF0B54468CA
:1026D000054685B0204603F0E5FE0190D0F88860FD
:1026E00001A803F077FF002E14BF01270027294619
:1026F000204615F083FD002804BF05B0F0BD286812
:10270000112876D006DC0B2870D00E286FD00F2849
:102710006ED0D4E00027212805D026282FD0B0F590
:10272000107F6CD0CBE0E8684168002943DD006889
:102730000D2840D130460CF0ECFB002806DB30467B
:102740000CF0E7FB0146204600F093FD002C7CD006
:1027500005F0B8FC204603F0A5FE0290D0F88800F2
:1027600038B116F0A5F90298C0F88870204616F026
:10277000AFFF02A803F02EFF07F07CFC9CE0E868A6
:10278000012809D00A2802D00B2815D097E00A2189
:10279000204617F06DF892E030460CF0BAFB0028A6
:1027A00009DB30460CF0B5FB0146204600F061FD28
:1027B000204617F05DFA82E0002C45D005F082FC3F
:1027C000204603F06FFE0090D0F8880038B116F074
:1027D0006FF90098C0F88870204616F079FF6846B7
:1027E00003F0F8FE07F046FC69E002E02FE043E06A
:1027F0001BE0002F63D1E868007A38BB5FE0E8682F
:1028000068B1007A28B10121204617F031F805B0EF
:10281000F0BD0221204617F02BF805B0F0BD0321D2
:10282000204617F025F805B0F0BD2646204603F0F7
:1028300039FE0290D0F88400046802A803F0CAFEB2
:10284000002C1CBF3046A04739E035E02CE0204684
:1028500003F028FE0090C06B03F024FF0098D0F82E
:10286000880016F025F90098D0F8940003F0E6FCF3
:10287000684603F0AFFE22E0E868416800291EDDEB
:102880000168202910D00ADC092911D00A2918BFB3
:102890001B2914D02046FFF75DFE05B0F0BD2129AD
:1028A00018BF2229F6D10AE0204600F0FBF906E025
:1028B00016F052FCB04202D1204617F0D9F9284652
:1028C00016F0BCF805B0F0BD002808BF704738B559
:1028D000044605F0F7FB204603F0E4FD0090D0F835
:1028E000880040B116F0E4F800990020C1F8880093
:1028F000204616F0EDFE684603F06CFE07F0BAFBCA
:1029000038BD70B586B0B0F90840458AD0F818C017
:102910000026CDE90254CDE90016CDF810C0B0F97B
:102920000C10B0F91040B0F90EC0B0F90A0019440B
:1029300010442346624600F003F806B070BD000064
:102940002DE9FF4F85B01E46DDE91447DDE9128908
:1029500092468B46169D05F0B5FB05F16C0030499B
:10296000CDE90210CDE900894FF0FF3352465946B8
:10297000059815F0A7FF05004BD003F093FD10223A
:102980003946009015F07AFE009880F88C40254C6E
:102990004C30B4E88E17A0E88E1794E88E11A0E8AA
:1029A0008E1154F8241D40F88419002180F89010ED
:1029B000C686284603F076FD0190B0F9381019B9A3
:1029C000C06C05F09DFA01460198C26AB0F98030EA
:1029D000126801EB4301561817F0C6FE074601A81E
:1029E00003F0F8FD32463946284617F0C3FA684628
:1029F00003F0F0FD03F053FE0646284603F052FDB7
:102A00000090C663684603F0E5FD206841682846EB
:102A1000884707F02FFB09B02846BDE8F08F00007B
:102A2000CD260008FC030020002808BF7047F8B539
:102A30000D46064600F080FA854228BFF8BD05F035
:102A400041FB304603F02EFD0090D0F88840C06B6B
:102A5000294603F056FE684603F0BCFD304616F0EA
:102A600037FE1CB1294620460CF008FA07F002FB9D
:102A7000F8BD00002DE9F041044688B0006803F07D
:102A800011FD0690468ED0F8885006A803F0A2FDEE
:102A9000002D18BF012506F00106206818F03AF84D
:102AA000002D18BF00200FD07D4951F820506068DC
:102AB000002800F0EE80022800F0CE8005280CD01F
:102AC00012287DD000F0E8B8002E18BF0120EBD10D
:102AD000002814BF02200320E6E7D5E90123A86AF5
:102AE00029688DE80F0004F110000FC808F002F902
:102AF0005FF0000655F8260006F0D5FEA169A86A29
:102B00000A1A216901446069304404F051FFA16947
:102B1000A86A0A1A21690144E069801B04F048FF91
:102B2000E169A86A0A1A616901442069304404F025
:102B3000DBFFE169A86A0A1A61690144A069801B88
:102B400004F0D2FF761C022ED4DBA86A02281BDD1B
:102B5000A86806F0A8FEE169A86AD4F810C00B1AAC
:102B60000CEB00014A1E616901440CF1020005F002
:102B700035F8E169A86AA2690B1A61690144101A63
:102B8000401C921E05F02AF8D5E90301CDE90001A9
:102B9000E1696069A26901444B10A96AD4F810C0C8
:102BA000521A8C44811C604604F0F8FDD5E90501F9
:102BB000CDE90001A069AB6A6169C21AE06900E071
:102BC00019E001444FF0010C0CEB6101D4F810C086
:102BD0009C44831E604604F0E1FD686A06F063FED3
:102BE000E2696169A369501A181A401C091D121F75
:102BF00004F07AFF50E0206803F054FC0090B0F835
:102C00008060B0F98280C76C684603F0E3FC208ADC
:102C1000B11C0844ADF80800A08A801CADF80A0079
:102C2000A08BA18A401A218B891B081AC01EADF8FF
:102C30000C00A08B801EADF80E00022006F0D6FE20
:102C4000384606F047FE286A06F02DFE424602A9E5
:102C5000206A04F00FFB1FE06169E0694FF0FF326A
:102C6000401AA0F1080102EB6106411CA269801B19
:102C70004410A2EB6107E86906F015FE002E0BDB9D
:102C8000BA19B91B204604F093FE641C761EF7D5D2
:102C900002E0206817F0CEF808B00020BDE8F0810F
:102CA000CC2C0708002808BF70472DE9F04F9DB0D5
:102CB000064605F007FA304603F0F4FB0E90304666
:102CC00016F0BEFB82460E98B0F9367090F8901060
:102CD000099190F88C80D0F83C90B0F934000690BF
:102CE000484603F049FD04460E98B0F88E100C914A
:102CF000B0F982100791C16C0891D0E90012CDE9BA
:102D00000412D0F89450016D1091416D1191816DB4
:102D10001291C16D1391016E1491416E1591016F65
:102D20001691416F1791806F18900EA803F052FC16
:102D3000304616F0BFFA03F0B5FB0D90D0F800B0A6
:102D40000DA803F047FC4FEA2B4042420FFA8BF0EC
:102D5000414204A806F0D6FB18F0020F1ABFBDF8D6
:102D60001200C01BBDF81600ADF81200304616F078
:102D7000A1FA0221CDF800A0CDE901710146BDF90B
:102D80001230BDF9102000200BF0FFFF074618F0AD
:102D9000010F07D0384609990CF0B3FB01213846E2
:102DA0000CF0C0FA4FF00008002C0BD94146484601
:102DB00003F0EEFC014638460BF01CFD08F101085B
:102DC0004445F3D800240DF1400800BF58F82420F2
:102DD000214638460CF0D3FA641C032CF6D30024A9
:102DE0000DF14C08214658F8242038460CF0AFFC71
:102DF000641C032CF6D300240DF15808214658F822
:102E0000242038460CF05BFB641C032CF6D315B36E
:102E1000284603F047FB0F9030F8028B002405464C
:102E2000B8F1000FC8BF4FF0010911DD05EBD40068
:102E300004F00701007809FA01F1084214BF0122E9
:102E40000022214638460CF0D0FA641C4445EDDBE4
:102E50000FA803F0BFFB38460C990CF000FB384676
:102E600008990CF0A7FA384607990CF059FC384637
:102E700016F0FEFE314638460CF00AFB384606993D
:102E80000CF05EFB0121304616F0F2FC304603F0F8
:102E900009FB0E90C0F888700EA803F09BFB07F0AA
:102EA000E9F81DB0BDE8F08F2DE9F04383B01D4671
:102EB00017460C4606004FF0010818BF002D35DDFF
:102EC00005F000F9304603F0EDFA0190C06B03F015
:102ED00053FC844225D2A1463046002403F0E2FA96
:102EE0000290C06B494603F053FC064602A803F06B
:102EF00071FB1EB1304603F0D5FA04462000009065
:102F00000FD0FDF758FA0446A84213DC3846009962
:102F1000FDF773FA00203855684603F05BFB4FF06D
:102F2000000801A803F056FB07F0A4F803B04046E0
:102F3000BDE8F0832C46E9E738B505004FF0000402
:102F40000DD005F0BFF8284603F0ACFA009000F071
:102F5000F7F90446684603F03DFB07F08BF820467E
:102F600038BD38B505004FF000040CD005F0AAF8C4
:102F7000284603F097FA0090B0F93440684603F011
:102F800029FB07F077F8204638BD0000042928BF48
:102F900070472DE9F001084A52F8211091E8FC1120
:102FA00080E8FC11D1E90823896A0262C0E909318D
:102FB000BDE8F00170470000CC2C0708002814BFC2
:102FC000002970472DE9F04383B015460E460746A9
:102FD00005F078F83846FFF7AFFF8146384603F032
:102FE00061FA0090D0F83C80D0F88840684603F041
:102FF000F1FA4D451BD23046FDF7DDF9421C29465A
:10300000404603F000FC40B103F04CFA3146019019
:10301000FDF7F3F901A803F0DDFA384616F058FB86
:1030200074B12A46314620460BF087FF08E031464E
:103030003846FFF72CFB1CB1314620460BF063FBF2
:1030400007F018F803B0BDE8F083002808BF704708
:10305000F8B50E46044605F035F8204603F022FA8E
:10306000009090F88C10D0F8885021F00104002EC8
:1030700018BF44F00104A1420BD080F88C40684690
:1030800003F0A8FA45B104F0010128460CF04AF912
:1030900002E0684603F09EFA06F0ECFFF8BD00007F
:1030A000044A0349116004490A6B086310467047DB
:1030B00034040020F8030020FC030020002808BF8F
:1030C0007047F8B50C46074604F0FCFF384603F09D
:1030D000E9F90090D0F88850C06C04F011FF064662
:1030E0000098C464684603F075FA384600F006F9A3
:1030F000384616F0EDFA75B1204604F001FFB042F3
:1031000005D03846FFF7E0FB3846FFF7CBFD2146F8
:1031100028460CF04FF906F0ADFFF8BD002808BFB7
:1031200070472DE9F04F87B091460D46824604F076
:10313000C9FF504603F0B6F90090D0F89440C06B38
:1031400003F01AFB86B2684603F044FAB5426AD22D
:1031500005F108004FF0020B6E1C0BEBD000B7B26C
:103160000390002C34D0204603F09CF90190B0F875
:10317000008001A803F02EFAB0453DD2039803F079
:103180003DF8060038D003F08DF90290204603F098
:1031900089F90146059008F107000BEBD00202986F
:1031A000FDF7ADF805A803F015FA02980780204650
:1031B00003F044F8504603F075F90090C0F89460AD
:1031C000684603F007FA02A803F004FA344613E055
:1031D00003F014F8040026D003F064F9019007808E
:1031E00001A803F0F7F9504603F05CF90090C0F82D
:1031F0009440684603F0EEF9204603F053F905F0D9
:103200000701012202FA01F10490801C00EBD500B5
:10321000B9F1000F027814BF114322EA01010170D5
:1032200004A803F0D7F906F025FF07B0BDE8F08F3A
:10323000F8B50C4605004FF0000618D004F042FF28
:10324000284603F02FF90090B0F93660D0F8885086
:10325000C486684603F0BEF93DB1284616F0F0F882
:1032600001462246284616F085FE06F003FF30464A
:10327000F8BD38B50C46050008BF38BD04F022FF84
:10328000284603F00FF90090C06B03F075FA002890
:1032900018BF401E844216DC0098B0F93410A142D9
:1032A0000BD08486684603F095F9284616F010FA8C
:1032B0000421284616F0DCFA02E0684603F08AF999
:1032C00006F0D8FE38BD0446E6E70000042928BF12
:1032D00070472DE9F001084A52F8211090E8FC11DE
:1032E00081E8FC11D0E90823806A0A62C1E909304B
:1032F000BDE8F00170470000CC2C0708F8B5044683
:1033000003F0D0F801460090B0F93800002804BF5F
:10331000C86C04F0F5FD0099CA6AB1F980301268F2
:1033200000EB43001518084617F01EFA06466846DB
:1033300003F050F92A463146204616F01BFEF8BD30
:10334000C06B03F019BA38B50D46002403F0AAF893
:103350000090C06B294603F01BFA0546684603F04F
:1033600039F91DB1284603F09DF80446204638BDC2
:1033700070470000F0B5ADF52F7D04460E460027DE
:103380000022214623A826F0CDF9054615B10DF5FA
:103390002F7DF0BD224620A101A821F049FB01A903
:1033A00019A826F0CBFA054605B1F0E709A8179051
:1033B00020201890002700BF11A919A826F0D8FBDB
:1033C000054615B99DF84D0000B922E09DF84D0065
:1033D0002E2800D11BE09DF84C0010F0100F15D1E5
:1033E00031460DF14D00FCF7C8FF28B10DF14D003D
:1033F00026F046FC054600BF31461798FCF7BDFF96
:1034000020B1179826F03CFC054600BF00BF7F1C8A
:10341000D2E700BF00BFBAE725732F0010B50248FE
:10342000006815F045FB10BDE000002010B5024813
:10343000006815F03DFB10BDE800002010B5024803
:10344000006815F035FB10BDE400002088B018219D
:1034500002A8FCF77BFF00200190009000240027C9
:1034600000BF80464FF001090025824600267BE020
:103470006946002025F076F9002861D09DF800000B
:10348000C92806D19DF800008DF808004FF0010909
:10349000012548E06946002025F064F9002842D063
:1034A000062D3FD2DFE805F03E030D13212C9DF8D9
:1034B0000000DB2803D19DF800008DF809000225EB
:1034C00030E09DF800008DF80A0003252AE09DF801
:1034D0000010E01C02AA1154601CC4B29DF80A003E
:1034E000801CA04200DC04251CE09DF80000E828B8
:1034F00004D19DF80010E01C02AA1154052511E02A
:103500009DF80000B22804D19DF80010201D02AAE9
:10351000115400259DF80A00C01D00F0FF08A946BF
:10352000002400BF00BFB9F1000FB3D10F484078AD
:103530000E49097840EA012A414602A82AF0DCFA3D
:103540000A4840780949097840EA0126B24508D07E
:10355000B246032701208DF8040001A9384625F062
:1035600027F90A202AF0A6FC82E700002A000020A2
:1035700070B5ADF51E7D20216846FCF7E7FE0026FC
:10358000234924A014F082FDC6B2304628F024F965
:10359000012200210846FEF713FE00221DA112A8F9
:1035A00026F0C0F805461DB100200DF51E7D70BD4A
:1035B00018A219A1684621F03BFA694608A826F02E
:1035C000BDF905460DB10020EFE7002417E01048D3
:1035D00000EB04130FA211A1684621F029FA012281
:1035E0006946114826F0CEF805460DB10020DCE70B
:1035F00020460DF0F5FF0C4825F0C0FF641CB442D6
:10360000E5D3002203A1104626F08CF83046CCE723
:10361000001A0020323A000025732F0025732F2551
:10362000732E7478740000006C0E0020002808BF10
:1036300070472DE9F04F91B00E46044604F042FD6C
:10364000204602F02FFF039090F854A0D0F8349059
:10365000876DC56C03A802F0BDFF27B13146204637
:10366000B84700F0B8B901274FF00008122E75D006
:1036700006DC082E73D0102E72D0112E3DD006E03D
:10368000132E70D01D2E00F0F3801E2E6AD0202E37
:10369000C0F2A181BAF1000F00F00181204602F0D2
:1036A00001FF0590D0F834A0D0F84C9005A802F0A6
:1036B00091FFBAF1000F00F0F280504602F0F2FEE6
:1036C00082464946069006F0AFFB81465046FCF71D
:1036D00072FE484540F2E080D144484606F050FB77
:1036E00009EB00014846FCF788FE06A802F072FFCD
:1036F0000521204616F0BCF8D1E0B9F1000F00F02A
:103700006A81484602F0CEFE06462946049006F03D
:103710008BFB0644304606F023FB0546CDF80880B7
:1037200006F04CFB0746681C1FFA80F8404606F07E
:1037300045FB0546AF420CD1414602A806F0FEFA11
:103740002A4602A93046FCF7DAFD0521204616F08C
:103750008FF804A802F03EFF00F03DB92FE03AE0F8
:1037600033E000E059E0B9F1000F00F03481484641
:1037700002F098FE06462946049006F055FB0644E2
:10378000304606F0EDFA0546CDF8088006F016FB47
:103790008046681E87B2384606F010FB0546A845ED
:1037A000D7D1394602A806F0C9FA2A4602A93046FE
:1037B000FCF7A5FD0521204616F05AF8C9E7691C5B
:1037C000204600F069FD00F006B9691E204600F0B1
:1037D00063FD00F000B9002D00F0FD80691E204659
:1037E00000F05AFD204602F05DFE0190C76C456B6B
:1037F00001A802F0EFFE002D00F0ED80284602F057
:1038000051FE06463946029006F00EFB054630464C
:10381000FCF7D1FDA84229D918E0204602F042FE6B
:103820000190C76C456B01A802F0D4FE002D7CD03E
:10383000284602F037FE06463946029006F0F4FAB2
:1038400005463046FCF7B7FDA8420FD93544284657
:1038500006F096FA29182846FCF7CFFD02A802F0D8
:10386000B9FE0521204616F003F8B4E002A810E0E6
:10387000204602F017FE0390BAF1010F08BF80F84E
:10388000548005D080F854702946204600F004FD8D
:1038900003A802F09FFE9EE006A802F09BFEB0B2D5
:1038A0000890204602F0FEFD06460290B0F938006E
:1038B000002813DD706B4FF0000940B102F0F2FDFB
:1038C000009007F089FD8146684602F083FEB6F954
:1038D000381009F101008842C8BF47460298C06C01
:1038E000099002A802F076FE002F74D0089806F026
:1038F00065FA074626464FF00009204602F0D2FD41
:103900000590406B40B102F0CDFD0A90FCF753FDED
:1039100081460AA802F05EFE059907EB0900498F6F
:10392000401A00F1010905A800E054E002F052FE3F
:10393000B9F1000F2ADD304609F1100902F0B2FD9D
:103940000090D0F834B0408F00EB090A684602F0CE
:1039500041FE5146584602F0BBFD5FEA00093AD0ED
:10396000BBF1000F07D102F09DFD0D9080F80080A3
:103970000DA802F02FFE304602F094FD0090A0F852
:103980003AA0C0F83490684602F024FE204602F0C7
:1039900089FD0290466B02A802F01CFE304602F040
:1039A00081FD06460F90099906F03EFA064430461E
:1039B000FCF701FD421CF0193146FCF7A0FC304633
:1039C000089906F0BBF90FA802F004FE0521204675
:1039D00015F04EFFF3E6204615F07AFE06F04AFB9E
:1039E00011B0BDE8F08F70B54568044682B0284636
:1039F00017F090F806462146284614F0FFFB0028F1
:103A000004BF02B070BD20680F2844D004DC0B282E
:103A100047D00E2850D066E0A0F58070133804D04F
:103A2000A0F580702D381FD05DE0284616F002F812
:103A3000284602F037FD009090F8561081F00401FE
:103A400080F85610684602F0C5FD002128461FF098
:103A5000A1FB284602F026FD0090D0F8840000214A
:103A600015F0CDFF684624E0E06878B1017A41B1F5
:103A70000168284600F039F90121284615F0F8FEC2
:103A800031E00221284615F0F3FE2CE00321284600
:103A900015F0EEFE27E0012128461FF07BFB02B067
:103AA00070BD284602F0FEFC0190343002F0FCFBB1
:103AB00001A802F08FFD16E0AEB1E0684168002970
:103AC00011DD01681B290ED009DC09291CBF0A2958
:103AD0000D2908D02846FFF7A9FD02B070BD2129A5
:103AE00018BF2229F6D1204614F0A8FF02B070BDFD
:103AF00070B5044686B0D4E9056CB0F90850408A28
:103B00000DF1080E8EE861100020CDE90010B4F927
:103B10000C00B4F91050C118B4F90A00B4F90EC081
:103B200010442B46624600F009F805001CBF618A6C
:103B300000F054FB284606B070BD00002DE9FF4F91
:103B400085B09846DDE91654DDE9126B91468A4648
:103B5000159F04F0B7FA04F16001314A03914BF468
:103B600080500096CDE9010243464A4651460598E9
:103B700014F0A8FE04004DD002F094FC1022394647
:103B8000049014F07BFD2748049990E8CC1701F1CC
:103B9000600B8BE8CC17006AC1F88000012081F827
:103BA0005500681C18BF012081F88800002DD8BF7F
:103BB000082528B2088700254D87461C04A84D63B8
:103BC00002F008FD204602F06DFC0090476B408F2C
:103BD00000EB0608684602F0FDFC4146384602F05C
:103BE00077FC060012D037B902F05CFC019005703A
:103BF00001A802F0EFFC204602F054FC0090A0F86F
:103C00003A804663684602F0E5FC03E0204614F083
:103C10004FFF002406F02EFA09B02046BDE8F08FD1
:103C2000E7390008F004002010B504002DED028BE8
:103C300082B09FED118A19D004F044FA204602F0B8
:103C400031FC009090F844100C4AD0ED120A6846FE
:103C500052F82110F8EEE00A00EE101AB8EE400A11
:103C600080EE808A02F0B6FC06F004FA02B0B0EEF4
:103C7000480ABDEC028B10BD000000008030070830
:103C8000F0B583B016460D00044612BF002C03B0F9
:103C9000F0BD04F017FA204602F004FC0027019062
:103CA0002F70406BA8B102F0FDFB009007F094FB71
:103CB0000146009806F0B8F80446701E84420FDCF6
:103CC000224628460099FCF71AFB684602F082FC5F
:103CD0002F5501A802F07EFC06F0CCF903B0F0BD30
:103CE0000446EDE78C2316F021BD002808BF70477D
:103CF0002DE9F04186B00C46074604F0E3F938465A
:103D000002F0D0FB0090406B002849D002F0CAFBC3
:103D100003900098806E05F0DDFD8046384615F072
:103D20008FFB0646039804F0C1F80546009890F80A
:103D3000601001F00301012918D002290FD0416E53
:103D4000C06A00680844201A441E039807F044FB28
:103D5000002C11DA0021384600F09EFA17E0701BA3
:103D6000401C00EBD070A4EB6004EEE7406E711BCA
:103D7000081A201A441CE8E7A54204DB0246214643
:103D8000039807F0BDFA0146384600F085FA03A80B
:103D900002F020FC404605F09DFD384615F098FCE9
:103DA000684602F017FC06F065F906B0BDE8F08140
:103DB0002DE9F8431D46DDE90869144688460746A3
:103DC00004F080F9002F5FD0384602F06BFB3049D9
:103DD000009081652F49C1650021C0E91281C0E9C9
:103DE0000F4580F8446080F85690012180F8541007
:103DF00090F88880684602F0EDFBB8F1000F2AD0F9
:103E0000002DAEBF012002206D42234B0A2D07DB9F
:103E100083FB05218A10A2EBE175401C0A2DF7DA1D
:103E2000002CBABF0221644201210A2C09DB00BF29
:103E300083FB04C24FEAA20CACEBE274491C0A2CCF
:103E4000F6DA002E1CBF401C491C8842C8BF014640
:103E5000384600F0A7F8384620F0B8FB384602F0A4
:103E600021FB009000F003FA0C490978884205D143
:103E70000098C06C411C384600F00EFA684602F00B
:103E8000A9FB384615F024FC06F0F4F8BDE8F883E9
:103E9000C9BD0108CD45020867666666700200204C
:103EA000002808BF70472DE9F04116462DED068B1E
:103EB00082B00C46F0EE418AB0EE60AAB0EE409AB5
:103EC000074604F0FFF8284850F8240000EE100AD6
:103ED000B8EE408A28EE090A10EE100AFCF7BCFC86
:103EE0009FED239B53EC192BFCF7E5FA41EC100BEB
:103EF00020F0D2FD51EC100BFCF776FC28EE0A0AFC
:103F0000054610EE100AFCF7A7FC53EC192BFCF742
:103F1000D2FA41EC100B20F0BFFD51EC100BFCF776
:103F200063FC28EE280A804610EE100AFCF794FC89
:103F300053EC192BFCF7BFFA41EC100B20F0ACFD51
:103F400051EC100BFCF750FCCDE90046034642460D
:103F500029463846FFF72CFF02B0BDEC068BBDE8C2
:103F6000F04106F087B8000080300708000000002C
:103F7000000000000000E03F002808BF704738B58F
:103F80000C46054604F09EF8284602F08BFA009095
:103F90008466284615F09CFB684602F01BFB06F081
:103FA00069F838BD002808BF70472DE9F04385B097
:103FB0000C46054604F086F8284602F073FA009095
:103FC000B0F93810468F4FF00008A14245D012DDFD
:103FD000406B80B102F066FA019007F0FDF9A04253
:103FE00006DD2146019805F01FFF019901F80080C8
:103FF00001A802F0EFFA684602F0ECFAA01B461C9A
:10400000284602F04FFA0290D0F83490408F87197A
:1040100002A802F0DFFA3946484602F059FA0600D3
:1040200013D0B9F1000F07D102F03CFA039080F8E9
:10403000008003A802F0CEFA284602F033FA02907C
:104040004787466302A802F0C5FA284602F02AFA1A
:1040500000900487284615F03BFB684602F0BAFA48
:1040600006F008F805B0BDE8F0832DE9F04F87B001
:104070008A4605004FF0000804BF07B0BDE8F08F86
:1040800004F020F8284602F00DFA0090B0F93870DC
:10409000446B684602F09EFA0026BAF1000F7ED00B
:1040A00054B1204602F0FEF90190FCF784F900F1CA
:1040B000010801A802F08EFA504607F08DF9044677
:1040C000B8426DDC2146504605F0AEFE471CA7EB1A
:1040D00008094FF00008284602F0E4F90390406B0D
:1040E00040B102F0DFF90590FCF765F9804605A8BC
:1040F00002F070FA039909EB0800498F401A00F1A9
:10410000010803A802F066FAB8F1000F2ADD28467C
:1041100008F11008049502F0C5F90290D0F834B007
:10412000408F00EB080902A802F054FA49465846AD
:1041300002F0CEF95FEA000846D0BBF1000F06D1CD
:1041400002F0B0F90690067006A802F043FA04984F
:1041500002F0A8F90290A0F83A90C0F8348002A8C2
:1041600002F038FA284602F09DF90090406B02F008
:1041700099F93A4651460190FCF7C1F80198384444
:1041800000F8016C0098C464B0F938108C4201BF8B
:1041900090F854100129611EC16401A801E006E0F5
:1041A0001AE002F017FA684602F014FA0CE028460A
:1041B00002F078F90090343002F076F800984687E3
:1041C000C664684602F006FA284615F081FA05F042
:1041D00051FF07B0BDE8F08F3C4673E7002808BFE9
:1041E000704738B50D46044603F06CFF204602F0D8
:1041F00059F9009018B10566204615F069FA68462D
:1042000002F0E8F905F036FF38BD8C2316F080BEC9
:1042100038B505000C4608BF38BD03F053FF2846EB
:1042200002F040F90090C16BA1421CDC016CA1427C
:104230001BDB816CA14210D08464C16D00291CBFBE
:1042400028468847284615F043FA684602F0C2F926
:104250000521284615F00CFB02E0684602F0BAF989
:1042600005F008FF38BD0C46E0E70C46E1E738B53D
:104270000546406B002468B102F014F90090044632
:10428000E96C05F0D1FD204405F06AFD044668465E
:1042900002F0A0F9204638BD10B582B00C4602F0FD
:1042A00001F90090406BE8B102F0FCF8019007F0D2
:1042B00093F8009991F85420002A18BF0122002C8D
:1042C00015DB844215DC00BFB1F93800801AA0422A
:1042D00011DBC86CA04218BFCC640020086501A89F
:1042E00002F078F9684602F075F902B010BD0024BA
:1042F000E7E70446E8E7B1F93800841AE9E7000087
:1043000010B5802000F05CF890B10A48006820F0F9
:104310008000084908600120074948700748006884
:10432000012121EA102004490870802000F008F8DB
:1043300010BD0000003C0140280000201004024095
:104340000149086070470000143C014000B585B089
:10435000012102200DF026FB012188030DF062FBF4
:104360008020039000208DF810008DF8130003A921
:10437000124801F07DFA072101200FF04BFC80204C
:10438000019000208DF808000C208DF80900012014
:104390008DF80A0001A800F01FF817208DF8000022
:1043A0000F208DF801008DF8020001208DF8030028
:1043B00068460DF07FFA05B000BD00000004024021
:1043C00001460020034A12680A4201D0012000E0A1
:1043D00000207047143C0140002123498279002AC3
:1043E0003AD00A46126803689A430B461A600A1DBF
:1043F000126803689A430B1D1A60027911440A6817
:1044000003681A430A60184A0832126803689A431C
:10441000154B08331A601A1D126803689A43124B31
:104420000C331A604279102A0ED11A1F12680368E1
:104430001A430D4B08331A601A1D126803681A4399
:10444000094B0C331A600DE00749427911440A68A0
:1044500003681A430A6005E0027911440A68036898
:104460009A430A6070470000003C014010B50246C4
:1044700000200023102A03D14FF02044636E0DE08A
:10448000B2F5807F02D1094C236807E0B2F5805F66
:1044900002D1074C236801E0064C236803EA0104BB
:1044A0008C4201D0002000E0012010BD840000A05B
:1044B000A40000A0580100A00021D0E900231A4365
:1044C00083685B1E42EA4312C36842EA4321014A01
:1044D00011607047500100A070B500220021002338
:1044E00000244FF02046056806EB8505D5F84021ED
:1044F0006FF30E02D0E901563543C66835430669AD
:1045000035434669354386693543C6693543066A8E
:104510003543466A35432A4305683DB94FF0204686
:10452000056806EB8505C5F8402115E03E4D2B6872
:104530006FF30E03D0E9075645EA0605466A45EAD9
:10454000060545EA0303384D2B604FF02046056809
:1045500006EB8505C5F84021056875BB324D083569
:10456000066855F8261001F07041856A2D686D1EA9
:10457000866A7668761E45EA0616856AAD686D1EFF
:1045800046EA0526856AED686D1E46EA0536856AA7
:104590002D8A6D1E46EA0546856AAD8A6D1E46EA7D
:1045A0000556856A2D7E6D1E46EA056529431E4D1A
:1045B0000835066845F8261034E0FFE71A4D08353F
:1045C000066855F8261001F07041856A2D686D1E49
:1045D000866A7668761E45EA0616856AAD686D1E9F
:1045E00046EA0526856A2D8A6D1E46EA0545294359
:1045F0000E4D2C6804F07044856AED68A5F1010544
:104600004FEA0536856AAD8AA5F1010546EA0555EA
:1046100045EA04044FF02045C5F84841034D0668BB
:1046200045F8261070BD0000400100A0480100A020
:104630000449096841EA40014FF02042C2F8541190
:1046400070470000540100A02DE9F047446805467A
:104650008EB04FF00008204601F024FF0090B0F823
:104660007CA0D0F86890D0F88070D0F88860C06DD9
:10467000002818BFD0F80080684601F0ABFF56B1A3
:1046800071682846884700281CBF0EB0BDE8F08737
:104690003668002EF4D12868172802BFC5F80C90A0
:1046A0000EB0BDE8F08713DC0F2844D00ADC0B28DD
:1046B00000F053810D2808BF1AF0080F00F0F680B3
:1046C00000F054B9112814D0142870D000F04EB95D
:1046D00026286DD006DC1E286BD0202800F0F08044
:1046E00000F044B92A2818D0B0F5107F2AD000F085
:1046F0003DB92046EE6801F0D5FE0190717A00299F
:1047000004BF317A012905D1B0F87C1041F48071E1
:10471000A0F87C1001A800F0FDB8204601F0C2FE10
:104720000090E968002912BFC0F88410D0F8840016
:10473000E860684649E0B8F1000F1CBF2046C0475A
:1047400000F014B927462046EE6801F0ABFE019058
:10475000B0F87C4001A801F03DFFE868002804BFE4
:104760000EB0BDE8F087307A20B314F0080F04BF14
:10477000384615F07DFA384613F0FCFF14F0100FA0
:1047800012BF14F4807F0EB0BDE8F087002314F050
:10479000800F1CBF0EB0BDE8F08779483146B0F9F4
:1047A0000020384615F0F0F90EB0BDE8F0870FE0B4
:1047B00018E024E0384601F075FE0190B0F87C1056
:1047C00021F48071A0F87C1001A801F003FFEBE751
:1047D00005A9204600F079FCDDE90612E8680160D1
:1047E0004260E1E7E8680228DED10C94E8680D90A9
:1047F00027200A900AA9A86816F04CFBD4E7E868BD
:10480000012819D0002CCFD003F05CFC204601F029
:1048100049FE0190B0F87C1011F0080F06D021F08D
:104820000801A0F87C10204614F052FF01A801F006
:10483000D1FE05F01FFCB7E7384614F0BDFF58B1B4
:10484000384615F015FA384614F038FE88B10121C3
:10485000384613F09EFD0CE0484615F065FA074611
:10486000204601F01FFE0090C0F88070684601F0FD
:10487000B1FEB4B103F026FC204601F013FE029015
:10488000B0F87C1011F0080F06D141F00801A0F833
:104890007C10204614F01CFF02A801F09BFE05F0DE
:1048A000E9FB002F04BF0020E8607DE7E868C068EE
:1048B00000281FBF007A0028204615F0D9F955E0DE
:1048C000EE684EB32146706816F0FCF800282746C3
:1048D000204622D001F0E6FD0490B0F87C1011F0E3
:1048E000080F06D141F00801A0F87C10384614F0FA
:1048F000EFFE04A801F06EFE2146706816F0CEF8B7
:1049000050B1204601F0CEFD02907168C0F88010D1
:104910000DF1080001F05EFE28E001F0C3FD0490F7
:10492000B0F87C1011F0080F06D021F00801A0F8B3
:104930007C10384614F0CCFE04A801F04BFE214652
:10494000306816F0ABF888B1204601F0ABFD02905C
:104950003168C0F8801002A8DCE7204601F0A2FD13
:104960000090703001F0A0FC6846D3E7294620464D
:1049700013F044FC00281CBF284614F05FF813E72E
:104980001405002070B588B0B0F908400DF10C0E88
:104990000C9ED0F818C045688EE87010B0F812C0B0
:1049A0000024CDE90014CDF808C0B0F90C10B0F91E
:1049B0001040B0F90EC0B0F90A0019441044234663
:1049C000624600F003F808B070BD00002DE9FF4F0B
:1049D0008BB09946DDE91885DDE91B6792468B4669
:1049E0001E9C03F06FFB04F16000444945F48055C0
:1049F000CDE90210CDE900854B46524659460B9849
:104A000013F060FF040073D001F04CFD30223146FA
:104A1000049013F033FE3A4E049A06F1080102F1B5
:104A2000340E91E80B1F8EE80B1FD6E90A01C2E98C
:104A300015011D9850661A98A2F87C004FF00008E6
:104A4000C2F88080C2F86C80C2F888807068D06537
:104A500004A801F0BFFD05A9204600F036FB294857
:104A600041F28271CDF80C800094CDE90110BDF9BE
:104A70001E00BDF91A10BDF91C20401A431CBDF9D7
:104A80001800121A521C13F01DFF8046706841680E
:104A900020468847204601F005FD0490C0F8688054
:104AA00004A801F097FD42F20400054204BF20462D
:104AB00014F0CCF803F006FB204601F0F3FC009064
:104AC000006F0190684601F085FD394601A806F0A7
:104AD00025FE58B1204601F0E5FC009001990167E0
:104AE000684601F077FD204614F0F2FD05F0C2FAA9
:104AF00005F0C0FA0FB02046BDE8F08F4946000827
:104B000014050020855400082DE9F041044698B0B2
:104B1000006800F0BDF9002814BFDB4DDB4D606874
:104B2000152802BFA86A18B0BDE8F08112DC0B2876
:104B30002AD007DC002800F09281052800F02C81A3
:104B400000F09DB90E2800F07781122800F03B811B
:104B500000F095B9162802BFE86918B0BDE8F081E9
:104B6000172802BF286A18B0BDE8F081182802BFD4
:104B7000686A18B0BDE8F0811C2802BF686918B0E7
:104B8000BDE8F08100F07BB920680E901C200F90EA
:104B9000206801F087FC0390016D0EA88847064647
:104BA00003A801F017FD022E11DBD5E90001AA6868
:104BB0000292CDE90001D4E904023346A16905F06F
:104BC00097FF20698719A069A0EB06082CE02868E8
:104BD00004F069FE2169E8690844421E606902F038
:104BE000E7FEA269E869101A411C606902F0E0FE64
:104BF0006069471C3946206902F006FF3946A06902
:104C000002F002FF686804F04EFE20693946401C3D
:104C100002F0FAFEA0693946401E02F0F5FE206956
:104C2000871CA069A0F10208286804F03CFE4246F7
:104C30003946606902F0BCFE686804F034FE6069C1
:104C400042463946401C02F0B3FE686A02287DDD08
:104C5000A86804F028FE60696A6A811C1044431E3B
:104C60004246384602F0BAFF6069022EACBF0644E5
:104C7000861CE069471E286804F015FE3A46314656
:104C8000206902F031FF3A463146A06902F02CFF5C
:104C9000E069871E686804F006FE20693A463146DE
:104CA000401C02F021FFA0693A463146401E02F046
:104CB0001BFFE8690228DCBF286A022820DDA86AF9
:104CC0000228C7BFE1690F1AE069871EA86804F0CF
:104CD000EAFDE969022907DD22693B46901C11447F
:104CE0004A1E314602F07AFF286A022808DDA169CF
:104CF000E8698A1E081A3B463146401C02F06EFFE6
:104D0000286804F0D0FDD4E90620216902F050FEA5
:104D1000686804F0C8FDA069421E2069411CE06972
:104D2000401E02F045FEA86A02284BDD21698E1C58
:104D3000A1698F1EE169081A441CA1F10208A86844
:104D400004F0B1FD43463A46214600E003E0304618
:104D500002F044FF93E0296AB14285DD6069022ECA
:104D600000F10208ACBF871947462069ACBF304448
:104D7000801C22693B461144A1F10102414602F028
:104D80002DFFA069022EACBF821B821EE9693B4643
:104D9000401A4146401C65E7208A00B2ADF8180071
:104DA000A18A09B2ADF81A10228B12B2ADF81C20FC
:104DB000A38B1BB2ADF81E30D5E9034CCDE9004CF6
:104DC00002F0ECFC5BE0208A298B0844ADF8180067
:104DD000A08AADF81A00208B298B401AADF81C0070
:104DE000A08BADF81E00206801F05CFB0390006F03
:104DF000F0B1022004F0FAFD039991F87C00C0F3B1
:104E0000C00001EB8000006C04F04DFD0398406B86
:104E100004F060FD0398006F01F044FB03990A90D1
:104E2000B1F95A2006A902F025FA0AA801F0D2FB2E
:104E300003A801F0CFFB22E0208AADF81800A08A79
:104E4000ADF81A00208BADF81C00A08BADF81E0049
:104E5000A86804F028FD06A802F0ECFE0FE0206828
:104E600001F020FB0390B0F85A1041F00C01A0F8BB
:104E70005A1003A801F0AEFB206814F0DBFF18B055
:104E80000020BDE8F0810000E406002010070020AB
:104E900038B505004FF0000410D003F013F9284690
:104EA00001F000FB009090F87C0010F0080F18BF94
:104EB0000124684601F08EFB05F0DCF8204638BD81
:104EC000002808BF704738B50C46054603F0FAF8CD
:104ED000284601F0E7FA0090816CA14203D0846477
:104EE000806E14F0F5FB684601F074FB05F0C2F823
:104EF00038BD2DE9F04182B00E46054603F0E2F8D8
:104F0000002D29D0284601F0CDFA0190C16D8C68A2
:104F100000F07FF907460198466301A801F05AFBAB
:104F20002268012128469047064623680321284627
:104F30009847804622680021284690470446284624
:104F400000F065FA4346324639462846009400F0A0
:104F5000DFF9284614F0BCFB05F08CF802B0BDE880
:104F6000F081002808BF704730B583B00D46044675
:104F700003F0A8F8204601F095FA0090006F019028
:104F8000684601F027FB294601A806F0C7FB58B187
:104F9000204601F087FA009001990167684601F008
:104FA00019FB204614F094FB05F064F803B030BD03
:104FB000002808BF704738B50C46054603F082F854
:104FC000284601F06FFA0090B0F95A10A14204D0BF
:104FD000A0F85A40284614F07BFB684601F0FAFA24
:104FE00005F048F838BD002808BF704738B50C46B2
:104FF000054603F067F8284601F054FA009004646F
:105000004464684601F0E6FA284614F061FB05F0B6
:1050100031F838BD002808BF70472DE9F04383B050
:105020000C46804603F04EF8404601F03BFA0090F3
:10503000428E002C114614BF41F0200621F02006BC
:10504000B2423AD04686404600F0E1F9009DEC6954
:105050000CB3204601F026FA0190076AB0F902006D
:10506000B5F90210A0EB010901A801F0B3FAB5F9F6
:10507000560048450DD1A86EA0420AD095F83200DE
:1050800010F0200F204602D014F0F4FF01E014F0DD
:1050900023FA3C00DDD1009890F87C0010F0400F1E
:1050A00008D016F0200F404602D014F0E3FF01E0D4
:1050B00014F012FA404614F00BFB684601F08AFA2D
:1050C00004F0D8FF03B0BDE8F0832DE9F04F0027CE
:1050D0008DB00C468146BA4601F0E4F90190C06DEE
:1050E0000121856848462A68904780462A6803213E
:1050F0004846904707902A68022148469047069004
:105100002A680021484690470646019815F02CFB76
:105110000590019815F02FFB8346019890F8321006
:1051200001F02001002918BFB0F958A04FF0000588
:1051300006D0B0F954501DB9406B02F0E3FE851C57
:105140000198C06E10B114F093F90746258067806E
:10515000A4F8048007990598401A06EB0A01401E3E
:10516000294420813944E1800699ABEB0101491EB5
:105170006181A4F80C8020827019E681401E608253
:1051800001A801F027FAB4F90C70B4F910604D468B
:10519000484601F087F90690C16DD0F8008006A856
:1051A000D1F8089001F016FAD9F80020002128461D
:1051B00090478146284613F0B1FF050024D001F046
:1051C00071F90790B0F900200FFA88F1B0F90430B6
:1051D000521A5B1AB0F90210A1EB284149450BD1D4
:1051E00090F8280010F0800F03D09642A8BF561EFA
:1051F00002E09F42D8BF5F1C07A801F0EBF92846E8
:1052000014F04BF80500DAD1A78126820DB0BDE875
:10521000F08F10B50146002091F8322012F0200FD7
:1052200008BF10BDB1F95400002818BF10BD486B6D
:1052300002F068FE801C10BD70B58AB00E460446B0
:1052400001F030F90990C06D856809A801F0C2F934
:105250000094002E08BF18200BD0012E08BF162086
:1052600007D0022E08BF152003D0032E08BF172039
:1052700000D101906968684688470AB070BD2DE981
:10528000F04383B017468846814601F00BF9009041
:10529000C16D056868468C6801F09CF922680021A0
:1052A000484690470646484613F038FF040004BFBE
:1052B00003B0BDE8F08301F0F5F80190B0F90010FB
:1052C0002AB2B0F90430891A9A1AB0F90230A3EB65
:1052D0002543B34211D190F8280010F0800F05D07B
:1052E00038688842A4BF481E386006E0D8F800003D
:1052F0009042DCBF501CC8F8000001A801F06AF918
:10530000204613F0CAFF0400D5D103B0BDE8F083F6
:105310002DE9FF4F85B09A4691460F46DDF848B01B
:10532000059801F0BFF80390C16D8C68FFF771FF1D
:10533000064603A801F04EF922680121059890471E
:10534000029022680321059890470190226800216D
:10535000059890470546BE4204BF0298484506D1CD
:105360000198504502BF5D4509B0BDE8F08FF41BC0
:105370000027B846059813F0D1FE060004BF09B017
:10538000BDE8F08F0198A5EB0B05AAEB000A029887
:10539000A0EB0909304601F085F80090806A10F012
:1053A000800F03D010F4007F06D025E010F4007FBA
:1053B00022D010F0800F1FD124B122461146304672
:1053C00014F09CFA009890F8280010F0800F06D096
:1053D00004FB17A12A4630467F1C14F03AFA0098C5
:1053E000008D10F4007F07D004FB08912A46304658
:1053F00008F1010814F02DFA684601F0EBF8304688
:1054000013F04BFF0600C5D109B0BDE8F08F70B5B1
:1054100086B0064601F046F80590D0E91A4505A881
:1054200001F0D8F854EA050004BF06B070BD694623
:105430003046FFF74AFEACB1BDF90620BDF90410B5
:10544000204614F0D5F9BDF90A00BDF90610401A3E
:10545000421CBDF90800BDF90410401A411C204649
:1054600014F088FD002D04BF06B070BDBDF9060024
:10547000BDF90210421ABDF90410284614F0B8F91B
:1054800006B070BD2DE9F0430446406889B005467A
:1054900013F010FF814601F005F80290D0F88080EB
:1054A000876C466E02A801F095F82068172862D034
:1054B00008DC0E2850D00F2816D0142818BF152845
:1054C00059D052E01E2829D01F283ED0222802BFE2
:1054D000E76009B0BDE8F083312801BF0020E0603B
:1054E00009B0BDE8F08340E06FF07040874204D01F
:1054F000384608F0F3FB01F0A5FB002E04BF09B00D
:10550000BDE8F083D4E902122068CDE90405CDE9B5
:10551000061204A8B04709B0BDE8F083E06800288F
:1055200004BF09B0BDE8F083B8F1000F18BFA8456B
:1055300005D0404614F09CFB09B0BDE8F083284636
:1055400014F0F2FB09B0BDE8F0832146484612F0A2
:1055500055FE09B0BDE8F083E0684168002904DD2C
:1055600000680928EBD00A280BD0002E1CBF20466B
:10557000C4F80490CED1204613F060FA09B0BDE81B
:10558000F083284614F01EFC09B0BDE8F08300004B
:1055900010B528F091FB002213A1144824F0C2F8A2
:1055A000134908700846007830B100220EA1104659
:1055B00024F0B8F8002010BD0EA10F4824F0BEF969
:1055C0000B4908700846007830B1002206A1104649
:1055D00024F0A8F80020EEE7002203A1104624F0F2
:1055E000A1F80120E7E70000323A00008C17002004
:1055F00020000020323A2F00041300202DE9FC4146
:1056000007460D4600260024002000900190082047
:105610005A49086010204860402088600020C86017
:105620004FF48060086108460DF002F91020FCF785
:10563000CBFB044614B12046BDE8FC8150480088ED
:1056400000044E49086037204860402088600020F0
:10565000C8604FF48060086108460DF0E9F8372013
:10566000FCF7B2FB04460CB12046E5E74FF0FF30F3
:105670004449086008204860302088600220C860E3
:10568000002008610120486108460DF027F800203D
:105690003A49086033204860402088600020C86094
:1056A0004FF48060086108460DF0C2F83320FCF723
:1056B0008BFB04460CB12046BEE709E04FF4001016
:1056C0000DF038F820B10DF0ADF84DF82600761C3D
:1056D0002D48006840F22A610842EFD008200DF002
:1056E00029F828B108200CF0E1FF04242046A3E7A4
:1056F00002200DF01FF828B102200CF0D7FF022481
:10570000204699E720200DF015F828B120200CF054
:10571000CDFF062420468FE74FF400700DF00AF805
:1057200030B14FF400700CF0C1FF0724204683E72E
:1057300040F2FF500CF0BAFF00980006009901F407
:105740007F4140EA0120009901F47F0140EA1120E5
:10575000009940EA1160686001980006019901F41F
:105760007F4140EA0120019901F47F0140EA1120C4
:10577000019940EA1160286020465DE7584000200A
:10578000640000206C400020342C01402DE9F043DF
:105790000446C56887B017468846002004F08EF896
:1057A0000646002D1BBF2879002826F0020046F08F
:1057B000020004F083F82069012568B1D4E90212DF
:1057C0000091CDE901250395D0F800C063882288B7
:1057D00039464046E04719E0DFF84C90134B21462C
:1057E000D9F800001B68427CE0689847A0B1A18806
:1057F000E388A2680095CDE90231CDE90420019546
:10580000638822883946404607F0F4FB07B03046EB
:10581000BDE8F04304F052B8E088012812BF002030
:10582000D9F80000806BE2E77C02002074020020BF
:1058300010B5002004F02CF86FF07F4004F033F82E
:10584000012004F0B5F8002004F0C0F8002004F0B6
:10585000CDF8002004F032F80448006804F03AF86B
:10586000BDE81040002004F075B800007802002068
:10587000F0B50A4600210023002400BF3DE00125C9
:1058800005FA01F3156805EA03049C4234D1056862
:105890004F000326BE40B543056015794E00B54064
:1058A0000668354305601579012D02D01579022D62
:1058B00016D185684F000326BE40B54385605579F3
:1058C0004E00B540866835438560456801268E40A8
:1058D000B5434560456896798E40B6B2354345601C
:1058E000C5684F000326BE40B543C560D5794E005C
:1058F000B540C6683543C560491C1029BFD3F0BD0B
:10590000F0B5002300244D07ED0E02FA05F3CE108A
:1059100000F1200555F826504E07F70E0F26BE4021
:10592000B543CF1000F1200646F82750CE1000F105
:10593000200555F8265045EA0304CE1000F1200555
:1059400045F82640F0BD0246002013690B4201D005
:10595000012000E0002070470AB1018300E041838C
:1059600070470000014AC2E9000170472802002088
:10597000014AC2E90001704730020020014AC2E931
:105980000001704704030020014AC2E9000170478A
:1059900038020020014AC2E9000170470C030020D0
:1059A0002DE9F04F4B4989B00968B1F922200692E0
:1059B000D1F81CC0B1F92470DCF81C40A2898242E5
:1059C0009CBFE389984205D8A0EB02094FF0FF384D
:1059D000266812E0D4E90162002A71D0138883425C
:1059E0009CBF5588A8426BD8C01A526880B202EB9F
:1059F0008000B0F90090B0F90280B9F1FF3F5FD0AC
:105A00009CF81800A27C10FB02FB94F810A00790F1
:105A1000B1F92A50284608F0C9F9C0B208902D48BB
:105A200009FB0B620068A37C4FF00109816BCDE993
:105A30000293CDE90421C0695246C17E807ECDE942
:105A40000001DDE90603394607F0D4FAB8F1FF3F5B
:105A500018D045F0020008F0A9F91E48A37C08FB05
:105A60000B620068816BCDE90293CDE90421C06926
:105A70005246C17E807ECDE90001DDE9060339464C
:105A800007F0B8FA134E3068C069417E007E81424B
:105A900013D9022D11D085F0040008F087F9306881
:105AA000C069017EC27E11FB0271427ED319827EE3
:105AB00006981AFB020207F077FC089808F076F9BE
:105AC0000448627C0068418C1144418409B0BDE8FF
:105AD000F08F00007C020020044800290068C069A3
